{
  "_format": "hh-sol-artifact-1",
  "contractName": "AddMedicalInfo",
  "sourceName": "contracts/AddMedicalInfo.sol",
  "abi": [
    {
      "inputs": [
        {
          "internalType": "contract Patients",
          "name": "_patientsContractAddress",
          "type": "address"
        },
        {
          "internalType": "contract Doctors",
          "name": "_doctorsContractAddress",
          "type": "address"
        },
        {
          "internalType": "contract Records",
          "name": "_recordsContractAddress",
          "type": "address"
        }
      ],
      "stateMutability": "nonpayable",
      "type": "constructor"
    },
    {
      "inputs": [
        {
          "internalType": "address",
          "name": "_doctorAddress",
          "type": "address"
        }
      ],
      "name": "addAuthorisedDoctor",
      "outputs": [],
      "stateMutability": "nonpayable",
      "type": "function"
    },
    {
      "inputs": [
        {
          "internalType": "string",
          "name": "_doctorName",
          "type": "string"
        },
        {
          "internalType": "string",
          "name": "_doctorId",
          "type": "string"
        },
        {
          "internalType": "string",
          "name": "_doctorSpeciality",
          "type": "string"
        },
        {
          "internalType": "string",
          "name": "_doctorHospital",
          "type": "string"
        },
        {
          "internalType": "string",
          "name": "_doctorGender",
          "type": "string"
        }
      ],
      "name": "addMedicalInfoDoctor",
      "outputs": [],
      "stateMutability": "nonpayable",
      "type": "function"
    },
    {
      "inputs": [
        {
          "internalType": "string",
          "name": "_patientName",
          "type": "string"
        },
        {
          "internalType": "string",
          "name": "_patientId",
          "type": "string"
        },
        {
          "internalType": "string",
          "name": "_patientMobileNumber",
          "type": "string"
        },
        {
          "internalType": "string",
          "name": "_patientGender",
          "type": "string"
        },
        {
          "internalType": "string",
          "name": "_patientAddress",
          "type": "string"
        },
        {
          "internalType": "string",
          "name": "_patientDateOfBirth",
          "type": "string"
        },
        {
          "internalType": "string",
          "name": "_allergiesKnown",
          "type": "string"
        }
      ],
      "name": "addMedicalInfoPatient",
      "outputs": [],
      "stateMutability": "nonpayable",
      "type": "function"
    },
    {
      "inputs": [
        {
          "internalType": "string",
          "name": "_patientId",
          "type": "string"
        },
        {
          "internalType": "string",
          "name": "_lastUpdated",
          "type": "string"
        },
        {
          "internalType": "string",
          "name": "_currentMedicalDosage",
          "type": "string"
        },
        {
          "internalType": "string",
          "name": "_updatedBy",
          "type": "string"
        },
        {
          "internalType": "string",
          "name": "_currentDiagnosis",
          "type": "string"
        },
        {
          "internalType": "string",
          "name": "_PDFreport",
          "type": "string"
        }
      ],
      "name": "addMedicalRecords",
      "outputs": [],
      "stateMutability": "nonpayable",
      "type": "function"
    },
    {
      "inputs": [],
      "name": "owner",
      "outputs": [
        {
          "internalType": "address",
          "name": "",
          "type": "address"
        }
      ],
      "stateMutability": "view",
      "type": "function"
    },
    {
      "inputs": [
        {
          "internalType": "address",
          "name": "_doctorAddress",
          "type": "address"
        }
      ],
      "name": "removeAuthorisedDoctor",
      "outputs": [],
      "stateMutability": "nonpayable",
      "type": "function"
    }
  ],
  "bytecode": "0x60806040523480156200001157600080fd5b50604051620017b8380380620017b8833981810160405281019062000037919062000200565b336000806101000a81548173ffffffffffffffffffffffffffffffffffffffff021916908373ffffffffffffffffffffffffffffffffffffffff16021790555060018060008060009054906101000a900473ffffffffffffffffffffffffffffffffffffffff1673ffffffffffffffffffffffffffffffffffffffff1673ffffffffffffffffffffffffffffffffffffffff16815260200190815260200160002060006101000a81548160ff02191690831515021790555082600260006101000a81548173ffffffffffffffffffffffffffffffffffffffff021916908373ffffffffffffffffffffffffffffffffffffffff16021790555081600360006101000a81548173ffffffffffffffffffffffffffffffffffffffff021916908373ffffffffffffffffffffffffffffffffffffffff16021790555080600460006101000a81548173ffffffffffffffffffffffffffffffffffffffff021916908373ffffffffffffffffffffffffffffffffffffffff16021790555050505062000314565b600081519050620001cc81620002c6565b92915050565b600081519050620001e381620002e0565b92915050565b600081519050620001fa81620002fa565b92915050565b6000806000606084860312156200021657600080fd5b60006200022686828701620001d2565b93505060206200023986828701620001bb565b92505060406200024c86828701620001e9565b9150509250925092565b60006200026382620002a6565b9050919050565b6000620002778262000256565b9050919050565b60006200028b8262000256565b9050919050565b60006200029f8262000256565b9050919050565b600073ffffffffffffffffffffffffffffffffffffffff82169050919050565b620002d1816200026a565b8114620002dd57600080fd5b50565b620002eb816200027e565b8114620002f757600080fd5b50565b620003058162000292565b81146200031157600080fd5b50565b61149480620003246000396000f3fe608060405234801561001057600080fd5b50600436106100625760003560e01c806325da1c77146100675780632b3df31d1461008357806342d688381461009f5780638da5cb5b146100bb5780639b602be6146100d9578063d956a48e146100f5575b600080fd5b610081600480360381019061007c9190610dbb565b610111565b005b61009d60048036038101906100989190610ed3565b6101f9565b005b6100b960048036038101906100b49190610dbb565b610561565b005b6100c361064a565b6040516100d091906111c0565b60405180910390f35b6100f360048036038101906100ee9190610de4565b61066e565b005b61010f600480360381019061010a9190610fec565b610946565b005b60008054906101000a900473ffffffffffffffffffffffffffffffffffffffff1673ffffffffffffffffffffffffffffffffffffffff163373ffffffffffffffffffffffffffffffffffffffff161461019f576040517f08c379a000000000000000000000000000000000000000000000000000000000815260040161019690611232565b60405180910390fd5b60018060008373ffffffffffffffffffffffffffffffffffffffff1673ffffffffffffffffffffffffffffffffffffffff16815260200190815260200160002060006101000a81548160ff02191690831515021790555050565b3360011515600160003373ffffffffffffffffffffffffffffffffffffffff1673ffffffffffffffffffffffffffffffffffffffff16815260200190815260200160002060009054906101000a900460ff1615151461028d576040517f08c379a000000000000000000000000000000000000000000000000000000000815260040161028490611212565b60405180910390fd5b600460009054906101000a900473ffffffffffffffffffffffffffffffffffffffff1673ffffffffffffffffffffffffffffffffffffffff16630e4b889f88886040518363ffffffff1660e01b81526004016102ea9291906111db565b600060405180830381600087803b15801561030457600080fd5b505af1158015610318573d6000803e3d6000fd5b50505050600460009054906101000a900473ffffffffffffffffffffffffffffffffffffffff1673ffffffffffffffffffffffffffffffffffffffff1663a6c6608b88876040518363ffffffff1660e01b81526004016103799291906111db565b600060405180830381600087803b15801561039357600080fd5b505af11580156103a7573d6000803e3d6000fd5b50505050600460009054906101000a900473ffffffffffffffffffffffffffffffffffffffff1673ffffffffffffffffffffffffffffffffffffffff166380a2ca0f88866040518363ffffffff1660e01b81526004016104089291906111db565b600060405180830381600087803b15801561042257600080fd5b505af1158015610436573d6000803e3d6000fd5b50505050600460009054906101000a900473ffffffffffffffffffffffffffffffffffffffff1673ffffffffffffffffffffffffffffffffffffffff1663acd0afc988856040518363ffffffff1660e01b81526004016104979291906111db565b600060405180830381600087803b1580156104b157600080fd5b505af11580156104c5573d6000803e3d6000fd5b50505050600460009054906101000a900473ffffffffffffffffffffffffffffffffffffffff1673ffffffffffffffffffffffffffffffffffffffff1663ea7a757a88846040518363ffffffff1660e01b81526004016105269291906111db565b600060405180830381600087803b15801561054057600080fd5b505af1158015610554573d6000803e3d6000fd5b5050505050505050505050565b60008054906101000a900473ffffffffffffffffffffffffffffffffffffffff1673ffffffffffffffffffffffffffffffffffffffff163373ffffffffffffffffffffffffffffffffffffffff16146105ef576040517f08c379a00000000000000000000000000000000000000000000000000000000081526004016105e690611232565b60405180910390fd5b6000600160008373ffffffffffffffffffffffffffffffffffffffff1673ffffffffffffffffffffffffffffffffffffffff16815260200190815260200160002060006101000a81548160ff02191690831515021790555050565b60008054906101000a900473ffffffffffffffffffffffffffffffffffffffff1681565b3360011515600160003373ffffffffffffffffffffffffffffffffffffffff1673ffffffffffffffffffffffffffffffffffffffff16815260200190815260200160002060009054906101000a900460ff16151514610702576040517f08c379a00000000000000000000000000000000000000000000000000000000081526004016106f990611212565b60405180910390fd5b600360009054906101000a900473ffffffffffffffffffffffffffffffffffffffff1673ffffffffffffffffffffffffffffffffffffffff16632e3b225086886040518363ffffffff1660e01b815260040161075f9291906111db565b600060405180830381600087803b15801561077957600080fd5b505af115801561078d573d6000803e3d6000fd5b50505050600360009054906101000a900473ffffffffffffffffffffffffffffffffffffffff1673ffffffffffffffffffffffffffffffffffffffff166386e383e486866040518363ffffffff1660e01b81526004016107ee9291906111db565b600060405180830381600087803b15801561080857600080fd5b505af115801561081c573d6000803e3d6000fd5b50505050600360009054906101000a900473ffffffffffffffffffffffffffffffffffffffff1673ffffffffffffffffffffffffffffffffffffffff16630dd7597886856040518363ffffffff1660e01b815260040161087d9291906111db565b600060405180830381600087803b15801561089757600080fd5b505af11580156108ab573d6000803e3d6000fd5b50505050600360009054906101000a900473ffffffffffffffffffffffffffffffffffffffff1673ffffffffffffffffffffffffffffffffffffffff16639e92b79186846040518363ffffffff1660e01b815260040161090c9291906111db565b600060405180830381600087803b15801561092657600080fd5b505af115801561093a573d6000803e3d6000fd5b50505050505050505050565b3360011515600160003373ffffffffffffffffffffffffffffffffffffffff1673ffffffffffffffffffffffffffffffffffffffff16815260200190815260200160002060009054906101000a900460ff161515146109da576040517f08c379a00000000000000000000000000000000000000000000000000000000081526004016109d190611212565b60405180910390fd5b600260009054906101000a900473ffffffffffffffffffffffffffffffffffffffff1673ffffffffffffffffffffffffffffffffffffffff1663ffdbc055888a6040518363ffffffff1660e01b8152600401610a379291906111db565b600060405180830381600087803b158015610a5157600080fd5b505af1158015610a65573d6000803e3d6000fd5b50505050600260009054906101000a900473ffffffffffffffffffffffffffffffffffffffff1673ffffffffffffffffffffffffffffffffffffffff166366c9868e88886040518363ffffffff1660e01b8152600401610ac69291906111db565b600060405180830381600087803b158015610ae057600080fd5b505af1158015610af4573d6000803e3d6000fd5b50505050600260009054906101000a900473ffffffffffffffffffffffffffffffffffffffff1673ffffffffffffffffffffffffffffffffffffffff16633ba1e7fe88876040518363ffffffff1660e01b8152600401610b559291906111db565b600060405180830381600087803b158015610b6f57600080fd5b505af1158015610b83573d6000803e3d6000fd5b50505050600260009054906101000a900473ffffffffffffffffffffffffffffffffffffffff1673ffffffffffffffffffffffffffffffffffffffff1663c38571a588866040518363ffffffff1660e01b8152600401610be49291906111db565b600060405180830381600087803b158015610bfe57600080fd5b505af1158015610c12573d6000803e3d6000fd5b50505050600260009054906101000a900473ffffffffffffffffffffffffffffffffffffffff1673ffffffffffffffffffffffffffffffffffffffff1663a1f058c788856040518363ffffffff1660e01b8152600401610c739291906111db565b600060405180830381600087803b158015610c8d57600080fd5b505af1158015610ca1573d6000803e3d6000fd5b50505050600260009054906101000a900473ffffffffffffffffffffffffffffffffffffffff1673ffffffffffffffffffffffffffffffffffffffff1663153474b988846040518363ffffffff1660e01b8152600401610d029291906111db565b600060405180830381600087803b158015610d1c57600080fd5b505af1158015610d30573d6000803e3d6000fd5b505050505050505050505050565b6000610d51610d4c84611277565b611252565b905082815260208101848484011115610d6957600080fd5b610d748482856112f6565b509392505050565b600081359050610d8b81611447565b92915050565b600082601f830112610da257600080fd5b8135610db2848260208601610d3e565b91505092915050565b600060208284031215610dcd57600080fd5b6000610ddb84828501610d7c565b91505092915050565b600080600080600060a08688031215610dfc57600080fd5b600086013567ffffffffffffffff811115610e1657600080fd5b610e2288828901610d91565b955050602086013567ffffffffffffffff811115610e3f57600080fd5b610e4b88828901610d91565b945050604086013567ffffffffffffffff811115610e6857600080fd5b610e7488828901610d91565b935050606086013567ffffffffffffffff811115610e9157600080fd5b610e9d88828901610d91565b925050608086013567ffffffffffffffff811115610eba57600080fd5b610ec688828901610d91565b9150509295509295909350565b60008060008060008060c08789031215610eec57600080fd5b600087013567ffffffffffffffff811115610f0657600080fd5b610f1289828a01610d91565b965050602087013567ffffffffffffffff811115610f2f57600080fd5b610f3b89828a01610d91565b955050604087013567ffffffffffffffff811115610f5857600080fd5b610f6489828a01610d91565b945050606087013567ffffffffffffffff811115610f8157600080fd5b610f8d89828a01610d91565b935050608087013567ffffffffffffffff811115610faa57600080fd5b610fb689828a01610d91565b92505060a087013567ffffffffffffffff811115610fd357600080fd5b610fdf89828a01610d91565b9150509295509295509295565b600080600080600080600060e0888a03121561100757600080fd5b600088013567ffffffffffffffff81111561102157600080fd5b61102d8a828b01610d91565b975050602088013567ffffffffffffffff81111561104a57600080fd5b6110568a828b01610d91565b965050604088013567ffffffffffffffff81111561107357600080fd5b61107f8a828b01610d91565b955050606088013567ffffffffffffffff81111561109c57600080fd5b6110a88a828b01610d91565b945050608088013567ffffffffffffffff8111156110c557600080fd5b6110d18a828b01610d91565b93505060a088013567ffffffffffffffff8111156110ee57600080fd5b6110fa8a828b01610d91565b92505060c088013567ffffffffffffffff81111561111757600080fd5b6111238a828b01610d91565b91505092959891949750929550565b61113b816112c4565b82525050565b600061114c826112a8565b61115681856112b3565b9350611166818560208601611305565b61116f81611398565b840191505092915050565b60006111876029836112b3565b9150611192826113a9565b604082019050919050565b60006111aa6028836112b3565b91506111b5826113f8565b604082019050919050565b60006020820190506111d56000830184611132565b92915050565b600060408201905081810360008301526111f58185611141565b905081810360208301526112098184611141565b90509392505050565b6000602082019050818103600083015261122b8161117a565b9050919050565b6000602082019050818103600083015261124b8161119d565b9050919050565b600061125c61126d565b90506112688282611338565b919050565b6000604051905090565b600067ffffffffffffffff82111561129257611291611369565b5b61129b82611398565b9050602081019050919050565b600081519050919050565b600082825260208201905092915050565b60006112cf826112d6565b9050919050565b600073ffffffffffffffffffffffffffffffffffffffff82169050919050565b82818337600083830152505050565b60005b83811015611323578082015181840152602081019050611308565b83811115611332576000848401525b50505050565b61134182611398565b810181811067ffffffffffffffff821117156113605761135f611369565b5b80604052505050565b7f4e487b7100000000000000000000000000000000000000000000000000000000600052604160045260246000fd5b6000601f19601f8301169050919050565b7f596f7520617265204e6f7420617574686f726973656420746f2041636365737360008201527f2074686520646174610000000000000000000000000000000000000000000000602082015250565b7f4f7070732c20596f752077696c6c206e65656420746f20636f6e74616374207460008201527f6865206f776e6572000000000000000000000000000000000000000000000000602082015250565b611450816112c4565b811461145b57600080fd5b5056fea2646970667358221220e67832b467204d5f61c95c4ad4e9d489725b83100b6c72e04d8f2aaec7092b1b64736f6c63430008040033",
  "linkReferences": {},
  "deployedLinkReferences": {}
}