{
  "_format": "hh-sol-artifact-1",
  "contractName": "GetMedicalInfo",
  "sourceName": "contracts/GetMedicalInfo.sol",
  "abi": [
    {
      "inputs": [
        {
          "internalType": "contract Patients",
          "name": "_patientsContractAddress",
          "type": "address"
        },
        {
          "internalType": "contract Doctors",
          "name": "_doctorsContractAddress",
          "type": "address"
        },
        {
          "internalType": "contract Records",
          "name": "_recordsContractAddress",
          "type": "address"
        }
      ],
      "stateMutability": "nonpayable",
      "type": "constructor"
    },
    {
      "inputs": [
        {
          "internalType": "address",
          "name": "_doctorAddress",
          "type": "address"
        }
      ],
      "name": "addAuthorisedDoctor",
      "outputs": [],
      "stateMutability": "nonpayable",
      "type": "function"
    },
    {
      "inputs": [
        {
          "internalType": "string",
          "name": "_doctorId",
          "type": "string"
        }
      ],
      "name": "getMedicalInfoDoctor",
      "outputs": [
        {
          "internalType": "string",
          "name": "",
          "type": "string"
        },
        {
          "internalType": "string",
          "name": "",
          "type": "string"
        },
        {
          "internalType": "string",
          "name": "",
          "type": "string"
        },
        {
          "internalType": "string",
          "name": "",
          "type": "string"
        }
      ],
      "stateMutability": "view",
      "type": "function"
    },
    {
      "inputs": [
        {
          "internalType": "string",
          "name": "_patientId",
          "type": "string"
        }
      ],
      "name": "getMedicalInfoPatient",
      "outputs": [
        {
          "internalType": "string",
          "name": "",
          "type": "string"
        },
        {
          "internalType": "string",
          "name": "",
          "type": "string"
        },
        {
          "internalType": "string",
          "name": "",
          "type": "string"
        },
        {
          "internalType": "string",
          "name": "",
          "type": "string"
        },
        {
          "internalType": "string",
          "name": "",
          "type": "string"
        },
        {
          "internalType": "string",
          "name": "",
          "type": "string"
        }
      ],
      "stateMutability": "view",
      "type": "function"
    },
    {
      "inputs": [
        {
          "internalType": "string",
          "name": "_patientId",
          "type": "string"
        }
      ],
      "name": "getMedicalRecords",
      "outputs": [
        {
          "internalType": "string",
          "name": "",
          "type": "string"
        },
        {
          "internalType": "string",
          "name": "",
          "type": "string"
        },
        {
          "internalType": "string",
          "name": "",
          "type": "string"
        },
        {
          "internalType": "string",
          "name": "",
          "type": "string"
        },
        {
          "internalType": "string",
          "name": "",
          "type": "string"
        },
        {
          "internalType": "string",
          "name": "",
          "type": "string"
        }
      ],
      "stateMutability": "view",
      "type": "function"
    },
    {
      "inputs": [],
      "name": "owner",
      "outputs": [
        {
          "internalType": "address",
          "name": "",
          "type": "address"
        }
      ],
      "stateMutability": "view",
      "type": "function"
    },
    {
      "inputs": [
        {
          "internalType": "address",
          "name": "_doctorAddress",
          "type": "address"
        }
      ],
      "name": "removeAuthorisedDoctor",
      "outputs": [],
      "stateMutability": "nonpayable",
      "type": "function"
    }
  ],
  "bytecode": "0x60806040523480156200001157600080fd5b506040516200194c3803806200194c833981810160405281019062000037919062000200565b336000806101000a81548173ffffffffffffffffffffffffffffffffffffffff021916908373ffffffffffffffffffffffffffffffffffffffff16021790555060018060008060009054906101000a900473ffffffffffffffffffffffffffffffffffffffff1673ffffffffffffffffffffffffffffffffffffffff1673ffffffffffffffffffffffffffffffffffffffff16815260200190815260200160002060006101000a81548160ff02191690831515021790555082600260006101000a81548173ffffffffffffffffffffffffffffffffffffffff021916908373ffffffffffffffffffffffffffffffffffffffff16021790555081600360006101000a81548173ffffffffffffffffffffffffffffffffffffffff021916908373ffffffffffffffffffffffffffffffffffffffff16021790555080600460006101000a81548173ffffffffffffffffffffffffffffffffffffffff021916908373ffffffffffffffffffffffffffffffffffffffff16021790555050505062000314565b600081519050620001cc81620002c6565b92915050565b600081519050620001e381620002e0565b92915050565b600081519050620001fa81620002fa565b92915050565b6000806000606084860312156200021657600080fd5b60006200022686828701620001d2565b93505060206200023986828701620001bb565b92505060406200024c86828701620001e9565b9150509250925092565b60006200026382620002a6565b9050919050565b6000620002778262000256565b9050919050565b60006200028b8262000256565b9050919050565b60006200029f8262000256565b9050919050565b600073ffffffffffffffffffffffffffffffffffffffff82169050919050565b620002d1816200026a565b8114620002dd57600080fd5b50565b620002eb816200027e565b8114620002f757600080fd5b50565b620003058162000292565b81146200031157600080fd5b50565b61162880620003246000396000f3fe608060405234801561001057600080fd5b50600436106100625760003560e01c806322ae8cef1461006757806325da1c771461009c57806342d68838146100b85780638da5cb5b146100d45780639b781210146100f2578063ca08b7d114610125575b600080fd5b610081600480360381019061007c919061116d565b61015a565b6040516100939695949392919061131b565b60405180910390f35b6100b660048036038101906100b19190611144565b61062d565b005b6100d260048036038101906100cd9190611144565b610715565b005b6100dc6107fe565b6040516100e9919061127d565b60405180910390f35b61010c6004803603810190610107919061116d565b610822565b60405161011c94939291906112ba565b60405180910390f35b61013f600480360381019061013a919061116d565b610b8c565b6040516101519695949392919061131b565b60405180910390f35b6060806060806060803360011515600160003373ffffffffffffffffffffffffffffffffffffffff1673ffffffffffffffffffffffffffffffffffffffff16815260200190815260200160002060009054906101000a900460ff161515146101f7576040517f08c379a00000000000000000000000000000000000000000000000000000000081526004016101ee906113a6565b60405180910390fd5b600260009054906101000a900473ffffffffffffffffffffffffffffffffffffffff1673ffffffffffffffffffffffffffffffffffffffff166395e587f5896040518263ffffffff1660e01b81526004016102529190611298565b60006040518083038186803b15801561026a57600080fd5b505afa15801561027e573d6000803e3d6000fd5b505050506040513d6000823e3d601f19601f820116820180604052508101906102a791906111ae565b600260009054906101000a900473ffffffffffffffffffffffffffffffffffffffff1673ffffffffffffffffffffffffffffffffffffffff1663a0d48fad8a6040518263ffffffff1660e01b81526004016103029190611298565b60006040518083038186803b15801561031a57600080fd5b505afa15801561032e573d6000803e3d6000fd5b505050506040513d6000823e3d601f19601f8201168201806040525081019061035791906111ae565b600260009054906101000a900473ffffffffffffffffffffffffffffffffffffffff1673ffffffffffffffffffffffffffffffffffffffff166325c723d38b6040518263ffffffff1660e01b81526004016103b29190611298565b60006040518083038186803b1580156103ca57600080fd5b505afa1580156103de573d6000803e3d6000fd5b505050506040513d6000823e3d601f19601f8201168201806040525081019061040791906111ae565b600260009054906101000a900473ffffffffffffffffffffffffffffffffffffffff1673ffffffffffffffffffffffffffffffffffffffff1663ca987a308c6040518263ffffffff1660e01b81526004016104629190611298565b60006040518083038186803b15801561047a57600080fd5b505afa15801561048e573d6000803e3d6000fd5b505050506040513d6000823e3d601f19601f820116820180604052508101906104b791906111ae565b600260009054906101000a900473ffffffffffffffffffffffffffffffffffffffff1673ffffffffffffffffffffffffffffffffffffffff1663d19d5b838d6040518263ffffffff1660e01b81526004016105129190611298565b60006040518083038186803b15801561052a57600080fd5b505afa15801561053e573d6000803e3d6000fd5b505050506040513d6000823e3d601f19601f8201168201806040525081019061056791906111ae565b600260009054906101000a900473ffffffffffffffffffffffffffffffffffffffff1673ffffffffffffffffffffffffffffffffffffffff16636df36bc68e6040518263ffffffff1660e01b81526004016105c29190611298565b60006040518083038186803b1580156105da57600080fd5b505afa1580156105ee573d6000803e3d6000fd5b505050506040513d6000823e3d601f19601f8201168201806040525081019061061791906111ae565b9650965096509650965096505091939550919395565b60008054906101000a900473ffffffffffffffffffffffffffffffffffffffff1673ffffffffffffffffffffffffffffffffffffffff163373ffffffffffffffffffffffffffffffffffffffff16146106bb576040517f08c379a00000000000000000000000000000000000000000000000000000000081526004016106b2906113c6565b60405180910390fd5b60018060008373ffffffffffffffffffffffffffffffffffffffff1673ffffffffffffffffffffffffffffffffffffffff16815260200190815260200160002060006101000a81548160ff02191690831515021790555050565b60008054906101000a900473ffffffffffffffffffffffffffffffffffffffff1673ffffffffffffffffffffffffffffffffffffffff163373ffffffffffffffffffffffffffffffffffffffff16146107a3576040517f08c379a000000000000000000000000000000000000000000000000000000000815260040161079a906113c6565b60405180910390fd5b6000600160008373ffffffffffffffffffffffffffffffffffffffff1673ffffffffffffffffffffffffffffffffffffffff16815260200190815260200160002060006101000a81548160ff02191690831515021790555050565b60008054906101000a900473ffffffffffffffffffffffffffffffffffffffff1681565b6060806060803360011515600160003373ffffffffffffffffffffffffffffffffffffffff1673ffffffffffffffffffffffffffffffffffffffff16815260200190815260200160002060009054906101000a900460ff161515146108bc576040517f08c379a00000000000000000000000000000000000000000000000000000000081526004016108b3906113a6565b60405180910390fd5b600360009054906101000a900473ffffffffffffffffffffffffffffffffffffffff1673ffffffffffffffffffffffffffffffffffffffff1663451644ba876040518263ffffffff1660e01b81526004016109179190611298565b60006040518083038186803b15801561092f57600080fd5b505afa158015610943573d6000803e3d6000fd5b505050506040513d6000823e3d601f19601f8201168201806040525081019061096c91906111ae565b600360009054906101000a900473ffffffffffffffffffffffffffffffffffffffff1673ffffffffffffffffffffffffffffffffffffffff166345824eff886040518263ffffffff1660e01b81526004016109c79190611298565b60006040518083038186803b1580156109df57600080fd5b505afa1580156109f3573d6000803e3d6000fd5b505050506040513d6000823e3d601f19601f82011682018060405250810190610a1c91906111ae565b600360009054906101000a900473ffffffffffffffffffffffffffffffffffffffff1673ffffffffffffffffffffffffffffffffffffffff1663b4d31147896040518263ffffffff1660e01b8152600401610a779190611298565b60006040518083038186803b158015610a8f57600080fd5b505afa158015610aa3573d6000803e3d6000fd5b505050506040513d6000823e3d601f19601f82011682018060405250810190610acc91906111ae565b600360009054906101000a900473ffffffffffffffffffffffffffffffffffffffff1673ffffffffffffffffffffffffffffffffffffffff1663b85390be8a6040518263ffffffff1660e01b8152600401610b279190611298565b60006040518083038186803b158015610b3f57600080fd5b505afa158015610b53573d6000803e3d6000fd5b505050506040513d6000823e3d601f19601f82011682018060405250810190610b7c91906111ae565b9450945094509450509193509193565b6060806060806060803360011515600160003373ffffffffffffffffffffffffffffffffffffffff1673ffffffffffffffffffffffffffffffffffffffff16815260200190815260200160002060009054906101000a900460ff16151514610c29576040517f08c379a0000000000000000000000000000000000000000000000000000000008152600401610c20906113a6565b60405180910390fd5b600460009054906101000a900473ffffffffffffffffffffffffffffffffffffffff1673ffffffffffffffffffffffffffffffffffffffff1663dd1388c2896040518263ffffffff1660e01b8152600401610c849190611298565b60006040518083038186803b158015610c9c57600080fd5b505afa158015610cb0573d6000803e3d6000fd5b505050506040513d6000823e3d601f19601f82011682018060405250810190610cd991906111ae565b600460009054906101000a900473ffffffffffffffffffffffffffffffffffffffff1673ffffffffffffffffffffffffffffffffffffffff16637c7b5ee88a6040518263ffffffff1660e01b8152600401610d349190611298565b60006040518083038186803b158015610d4c57600080fd5b505afa158015610d60573d6000803e3d6000fd5b505050506040513d6000823e3d601f19601f82011682018060405250810190610d8991906111ae565b600460009054906101000a900473ffffffffffffffffffffffffffffffffffffffff1673ffffffffffffffffffffffffffffffffffffffff1663f2c6d3cc8b6040518263ffffffff1660e01b8152600401610de49190611298565b60006040518083038186803b158015610dfc57600080fd5b505afa158015610e10573d6000803e3d6000fd5b505050506040513d6000823e3d601f19601f82011682018060405250810190610e3991906111ae565b600460009054906101000a900473ffffffffffffffffffffffffffffffffffffffff1673ffffffffffffffffffffffffffffffffffffffff166335cbe12c8c6040518263ffffffff1660e01b8152600401610e949190611298565b60006040518083038186803b158015610eac57600080fd5b505afa158015610ec0573d6000803e3d6000fd5b505050506040513d6000823e3d601f19601f82011682018060405250810190610ee991906111ae565b600460009054906101000a900473ffffffffffffffffffffffffffffffffffffffff1673ffffffffffffffffffffffffffffffffffffffff1663a0595e898d6040518263ffffffff1660e01b8152600401610f449190611298565b60006040518083038186803b158015610f5c57600080fd5b505afa158015610f70573d6000803e3d6000fd5b505050506040513d6000823e3d601f19601f82011682018060405250810190610f9991906111ae565b600460009054906101000a900473ffffffffffffffffffffffffffffffffffffffff1673ffffffffffffffffffffffffffffffffffffffff16632324d5208e6040518263ffffffff1660e01b8152600401610ff49190611298565b60006040518083038186803b15801561100c57600080fd5b505afa158015611020573d6000803e3d6000fd5b505050506040513d6000823e3d601f19601f8201168201806040525081019061104991906111ae565b9650965096509650965096505091939550919395565b600061107261106d8461140b565b6113e6565b90508281526020810184848401111561108a57600080fd5b61109584828561148a565b509392505050565b60006110b06110ab8461140b565b6113e6565b9050828152602081018484840111156110c857600080fd5b6110d3848285611499565b509392505050565b6000813590506110ea816115db565b92915050565b600082601f83011261110157600080fd5b813561111184826020860161105f565b91505092915050565b600082601f83011261112b57600080fd5b815161113b84826020860161109d565b91505092915050565b60006020828403121561115657600080fd5b6000611164848285016110db565b91505092915050565b60006020828403121561117f57600080fd5b600082013567ffffffffffffffff81111561119957600080fd5b6111a5848285016110f0565b91505092915050565b6000602082840312156111c057600080fd5b600082015167ffffffffffffffff8111156111da57600080fd5b6111e68482850161111a565b91505092915050565b6111f881611458565b82525050565b60006112098261143c565b6112138185611447565b9350611223818560208601611499565b61122c8161152c565b840191505092915050565b6000611244602983611447565b915061124f8261153d565b604082019050919050565b6000611267602883611447565b91506112728261158c565b604082019050919050565b600060208201905061129260008301846111ef565b92915050565b600060208201905081810360008301526112b281846111fe565b905092915050565b600060808201905081810360008301526112d481876111fe565b905081810360208301526112e881866111fe565b905081810360408301526112fc81856111fe565b9050818103606083015261131081846111fe565b905095945050505050565b600060c082019050818103600083015261133581896111fe565b9050818103602083015261134981886111fe565b9050818103604083015261135d81876111fe565b9050818103606083015261137181866111fe565b9050818103608083015261138581856111fe565b905081810360a083015261139981846111fe565b9050979650505050505050565b600060208201905081810360008301526113bf81611237565b9050919050565b600060208201905081810360008301526113df8161125a565b9050919050565b60006113f0611401565b90506113fc82826114cc565b919050565b6000604051905090565b600067ffffffffffffffff821115611426576114256114fd565b5b61142f8261152c565b9050602081019050919050565b600081519050919050565b600082825260208201905092915050565b60006114638261146a565b9050919050565b600073ffffffffffffffffffffffffffffffffffffffff82169050919050565b82818337600083830152505050565b60005b838110156114b757808201518184015260208101905061149c565b838111156114c6576000848401525b50505050565b6114d58261152c565b810181811067ffffffffffffffff821117156114f4576114f36114fd565b5b80604052505050565b7f4e487b7100000000000000000000000000000000000000000000000000000000600052604160045260246000fd5b6000601f19601f8301169050919050565b7f596f7520617265204e6f7420617574686f726973656420746f2041636365737360008201527f2074686520646174610000000000000000000000000000000000000000000000602082015250565b7f4f7070732c20596f752077696c6c206e65656420746f20636f6e74616374207460008201527f6865206f776e6572000000000000000000000000000000000000000000000000602082015250565b6115e481611458565b81146115ef57600080fd5b5056fea2646970667358221220e02e9068ad7aeb9bf98d2817e154485d4b91e5b6367f2fc613e8f0ef86d1aab564736f6c63430008040033",
  "linkReferences": {},
  "deployedLinkReferences": {}
}